{
    "contractName": "Property",
    "abi": [
        {
            "anonymous": false,
            "inputs": [
                {
                    "indexed": true,
                    "internalType": "address",
                    "name": "previousOwner",
                    "type": "address"
                },
                {
                    "indexed": true,
                    "internalType": "address",
                    "name": "newOwner",
                    "type": "address"
                }
            ],
            "name": "OwnershipTransferred",
            "type": "event"
        },
        {
            "inputs": [
                {
                    "internalType": "uint256",
                    "name": "showProject",
                    "type": "uint256"
                }
            ],
            "name": "get_project",
            "outputs": [
                {
                    "internalType": "string",
                    "name": "author",
                    "type": "string"
                },
                {
                    "internalType": "string",
                    "name": "title",
                    "type": "string"
                },
                {
                    "internalType": "string",
                    "name": "description",
                    "type": "string"
                },
                {
                    "internalType": "uint256",
                    "name": "timestamp",
                    "type": "uint256"
                }
            ],
            "stateMutability": "view",
            "type": "function"
        },
        {
            "inputs": [],
            "name": "owner",
            "outputs": [
                {
                    "internalType": "address",
                    "name": "",
                    "type": "address"
                }
            ],
            "stateMutability": "view",
            "type": "function"
        },
        {
            "inputs": [
                {
                    "internalType": "string",
                    "name": "_author",
                    "type": "string"
                },
                {
                    "internalType": "string",
                    "name": "_title",
                    "type": "string"
                },
                {
                    "internalType": "string",
                    "name": "_description",
                    "type": "string"
                }
            ],
            "name": "register",
            "outputs": [],
            "stateMutability": "nonpayable",
            "type": "function"
        },
        {
            "inputs": [],
            "name": "renounceOwnership",
            "outputs": [],
            "stateMutability": "nonpayable",
            "type": "function"
        },
        {
            "inputs": [
                {
                    "internalType": "address",
                    "name": "newOwner",
                    "type": "address"
                }
            ],
            "name": "transferOwnership",
            "outputs": [],
            "stateMutability": "nonpayable",
            "type": "function"
        }
    ],
    "bytecode": "608060405234801561001057600080fd5b5061001a3361001f565b61006f565b600080546001600160a01b038381166001600160a01b0319831681178455604051919092169283917f8be0079c531659141344cd1fd0a4f28419497f9722a3daafe3b4186f6b6457e09190a35050565b6107ee8061007e6000396000f3fe608060405234801561001057600080fd5b50600436106100575760003560e01c80634cd08d031461005c578063715018a6146100715780638da5cb5b14610079578063d6ee600c14610099578063f2fde38b146100bc575b600080fd5b61006f61006a3660046105ee565b6100cf565b005b61006f61017a565b6000546040516001600160a01b0390911681526020015b60405180910390f35b6100ac6100a7366004610676565b61018e565b60405161009094939291906106dc565b61006f6100ca366004610727565b61038a565b6100d7610408565b60408051608081018252848152602080820185905281830184905242606083015260025460009081526001825292909220815180519293919261011d92849201906104b2565b50602082810151805161013692600185019201906104b2565b50604082015180516101529160028401916020909101906104b2565b50606091909101516003909101556002805490600061017083610757565b9190505550505050565b610182610408565b61018c6000610462565b565b60008181526001602052604081208054606092839283926101ae9061077e565b80601f01602080910402602001604051908101604052809291908181526020018280546101da9061077e565b80156102275780601f106101fc57610100808354040283529160200191610227565b820191906000526020600020905b81548152906001019060200180831161020a57829003601f168201915b5050505050935060016000868152602001908152602001600020600101805461024f9061077e565b80601f016020809104026020016040519081016040528092919081815260200182805461027b9061077e565b80156102c85780601f1061029d576101008083540402835291602001916102c8565b820191906000526020600020905b8154815290600101906020018083116102ab57829003601f168201915b50505060008881526001602052604090206002018054939650926102ee9250905061077e565b80601f016020809104026020016040519081016040528092919081815260200182805461031a9061077e565b80156103675780601f1061033c57610100808354040283529160200191610367565b820191906000526020600020905b81548152906001019060200180831161034a57829003601f168201915b505050600097885250506001602052604090952060030154939592949392915050565b610392610408565b6001600160a01b0381166103fc5760405162461bcd60e51b815260206004820152602660248201527f4f776e61626c653a206e6577206f776e657220697320746865207a65726f206160448201526564647265737360d01b60648201526084015b60405180910390fd5b61040581610462565b50565b6000546001600160a01b0316331461018c5760405162461bcd60e51b815260206004820181905260248201527f4f776e61626c653a2063616c6c6572206973206e6f7420746865206f776e657260448201526064016103f3565b600080546001600160a01b038381166001600160a01b0319831681178455604051919092169283917f8be0079c531659141344cd1fd0a4f28419497f9722a3daafe3b4186f6b6457e09190a35050565b8280546104be9061077e565b90600052602060002090601f0160209004810192826104e05760008555610526565b82601f106104f957805160ff1916838001178555610526565b82800160010185558215610526579182015b8281111561052657825182559160200191906001019061050b565b50610532929150610536565b5090565b5b808211156105325760008155600101610537565b634e487b7160e01b600052604160045260246000fd5b600082601f83011261057257600080fd5b813567ffffffffffffffff8082111561058d5761058d61054b565b604051601f8301601f19908116603f011681019082821181831017156105b5576105b561054b565b816040528381528660208588010111156105ce57600080fd5b836020870160208301376000602085830101528094505050505092915050565b60008060006060848603121561060357600080fd5b833567ffffffffffffffff8082111561061b57600080fd5b61062787838801610561565b9450602086013591508082111561063d57600080fd5b61064987838801610561565b9350604086013591508082111561065f57600080fd5b5061066c86828701610561565b9150509250925092565b60006020828403121561068857600080fd5b5035919050565b6000815180845260005b818110156106b557602081850181015186830182015201610699565b818111156106c7576000602083870101525b50601f01601f19169290920160200192915050565b6080815260006106ef608083018761068f565b8281036020840152610701818761068f565b90508281036040840152610715818661068f565b91505082606083015295945050505050565b60006020828403121561073957600080fd5b81356001600160a01b038116811461075057600080fd5b9392505050565b60006001820161077757634e487b7160e01b600052601160045260246000fd5b5060010190565b600181811c9082168061079257607f821691505b6020821081036107b257634e487b7160e01b600052602260045260246000fd5b5091905056fea2646970667358221220f6fd14c331308ae197c1195ae3821207bb62fb2c8ebbddfa53312aa4f91cc38964736f6c634300080d0033",
    "sourcePath": "/home/kirov/Desktop/intellectual-property/Property.sol",
    "compiler": {
        "name": "solc",
        "version": "0.8.13+commit.abaa5c0e"
    },
    "functionHashes": {
        "get_project(uint256)": "d6ee600c",
        "owner()": "8da5cb5b",
        "register(string,string,string)": "4cd08d03",
        "renounceOwnership()": "715018a6",
        "transferOwnership(address)": "f2fde38b"
    },
    "gasEstimates": {
        "creation": {
            "codeDepositCost": "406000",
            "executionCost": "26284",
            "totalCost": "432284"
        },
        "external": {
            "get_project(uint256)": "infinite",
            "owner()": "2312",
            "register(string,string,string)": "infinite",
            "renounceOwnership()": "infinite",
            "transferOwnership(address)": "28364"
        }
    }
}